:100000000C9446000C9465000C9465000C946500FB
:100010000C9465000C9465000C9465000C946500CC
:100020000C9465000C9465000C9465000C946500BC
:100030000C9465000C9465000C9465000C946500AC
:100040000C9465000C9465000C9465000C9465009C
:100050000C9465000C9465000C9465000C9465008C
:100060000C9465000C9465000C9465000C9465007C
:100070000C9465000C9465000C94A2010C9465002E
:100080000C9465000C9465000C94650011241FBE4F
:10009000CFEFD0E1DEBFCDBF11E0A0E0B1E0E6ECF4
:1000A000F3E000E00BBF02C007900D92AA32B10747
:1000B000D9F711E0AAE2B1E001C01D92AF32B10759
:1000C000E1F70E9497000C94E1010C94000087B9BD
:1000D00086EC86B980E29EE40197F1F7349BFECF6F
:1000E00024B135B1C9010895FC0142815381DC017D
:1000F00081E090E012962D913C911397421753079F
:100100000CF4A901019612968730910599F721E028
:1001100030E0828193818417950711F4C901089515
:100120002F5F3F4F32962730310599F70895FF92A0
:100130000F931F93CF93DF938FEF87BB82B90E94FA
:10014000B40180E091E00E94C9018EB58EBD8FB5EB
:1001500081608FBD8EB581608EBD8FB580688FBD8B
:100160008FB580628FBD8FB588608FBD80918A000A
:1001700080938A0080918B00816080938B008091B6
:100180008A00816080938A0080918B0080688093D0
:100190008B0080918B00806280938B0080918B001C
:1001A000886080938B0012BE1DBC1CBC109289001D
:1001B00010928800C0E0D0E000E21EE486ECF82E49
:1001C0002296C135D10514F0C0E0D0E0EDE2F1E0B7
:1001D00021E027B9F6B8C8010197F1F7349BFECFAB
:1001E00084B195B1819391932F5F273091F78BE282
:1001F00091E00E9474008330910509F442C084307C
:10020000910534F48130910571F00297C9F622C04E
:100210008530910509F463C0853091050CF448C020
:10022000069771F673C010928300109282001BBC77
:100230001ABC19BC18BC1092790010927800109268
:10024000870010928600D0938500C09384008FE0D1
:1002500091E072C010928300109282001BBC1ABC05
:1002600019BC18BCD0937900C09378001092870015
:1002700010928600109285001092840081E191E036
:100280005BC010928300109282001BBC1ABC19BC88
:1002900018BC1092790010927800D0938700C09318
:1002A0008600109285001092840083E191E044C0A2
:1002B0001092830010928200DBBDCABD19BC18BC2D
:1002C00010927900109278001092870010928600A8
:1002D000109285001092840085E191E02DC010926B
:1002E0008300109282001BBC1ABCD9BDC8BD1092FD
:1002F0007900109278001092870010928600109278
:1003000085001092840087E191E016C0D0938300AD
:10031000C09382001BBC1ABC19BC18BC1092790097
:10032000109278001092870010928600109285003B
:100330001092840089E191E00E94C90141CF0E949E
:10034000DA0108951F920F920FB60F9211248F9326
:100350008CB180932E0181E080932D018F910F90BD
:100360000FBE0F901F901895EAE9F0E088E18083B6
:100370008081806880831092980088E08093990043
:100380000895982F80919B0085FFFCCF90939C004F
:100390000895FC0107C080919B0085FFFCCF31963A
:1003A00090939C0090819923B1F7089580919B00D0
:1003B0008078089580919B0087FFFCCF80919C00FE
:0603C0000895F894FFCF40
:1003C6004469636520436F6E6E65637465640031CE
:1003D600003200330034003500360000000200060B
:0A03E60000050004000100070000FC
:00000001FF
